:100000000C94F1000C940E010C940E010C940E0152
:100010000C940E010C940E010C940E010C940E0124
:100020000C940E010C940E010C94A1050C94DB05AC
:100030000C940E010C940E010C940E010C940E0104
:100040000C940E010C940E010C940E010C940E01F4
:100050000C940E010C940E010C940E010C940E01E4
:100060000C940E010C940E010C940E010C940E01D4
:100070000C940E010C940E010C940E010C940E01C4
:100080000C940E010C940E010C940E010C940E01B4
:100090000C940E010C940E010C940E010C940E01A4
:1000A0000C940E010C940E010C940E014A054605A9
:1000B00042053E053A05360532052E052A05260578
:1000C00022051E051A05160512050E050A05060568
:1000D0000205FE04FA04F604F204EE04EA04E6045F
:1000E000E204DE04DA04D604D204CE04CA04C60450
:1000F000C204BE04BA04B604B204AE04AA04A60440
:10010000A2049E049A04960492048E048A0486042F
:1001100082047E047A04760472046E046A0466041F
:1001200062045E045A04560452044E044A04000158
:100130000000C5011200020000820143000300001C
:100140007E0104010309046A011202030904620129
:100150000603030904580108080334003100300085
:10016000000006034D003200000012034A002E007A
:1001700020004600690065006E0065000000040371
:10018000090409024300020100C032090400000111
:1001900002020100052400100105240101010424CC
:1001A0000206052406000107058203100040090429
:1001B0000100020A000000070503024000000705D5
:1001C00084024000001201000202000010C0167AF2
:1001D000040001010203010001C112018036018106
:1001E000360011241FBECFEFDAE0DEBFCDBF11E035
:1001F000A0E0B1E0E2EEF7E102C005900D92AC356F
:10020000B107D9F721E0ACE5B1E001C01D92A236FB
:10021000B207E1F70E9428080C94EF0B0C94000041
:10022000CF93DF93CDB7DEB7C455D1090FB6F8949D
:10023000DEBF0FBECDBF9C012250310922303105F7
:1002400008F495C02CE1E7E0F1E0DE01D9960190D9
:100250000D922A95E1F72CE1E3E2F1E0DE015D96F3
:1002600001900D922A95E1F72CE1EFE3F1E0DE0138
:10027000119601900D922A95E1F720917C002F773D
:1002800020937C0020917C00206420937C002091AE
:100290007A00216020937A0020917A0022602093D6
:1002A0007A0020917A00246020937A0088309105AA
:1002B00084F440917E0021E030E0082E01C0220F3E
:1002C0000A94EAF7242B20937E0020917B002F7D57
:1002D00011C040917D00BC016850710921E030E0FF
:1002E00001C0220F6A95EAF7242B20937D0020910C
:1002F0007B00206220937B00880F991FE1E0F0E0F3
:10030000EC0FFD1FE80FF91F20AD31AD232B21F0BD
:1003100020917C00246003C020917C002B7F2093DF
:100320007C00E1E0F0E0EC0FFD1FE80FF91F248DE9
:10033000358D232B21F020917C00226003C0209179
:100340007C002D7F20937C00E1E0F0E0EC0FFD1FAE
:10035000E80FF91F80819181892B21F080917C0029
:10036000816003C080917C008E7F80937C00CC5A9A
:10037000DF4F0FB6F894DEBF0FBECDBFDF91CF9138
:10038000089580917A00806880937A0080917A0045
:10039000806480937A0080917A0084FFFCCF209162
:1003A00078003091790090917A00906190937A0072
:1003B000C901089540915C0150915D014F5F5F4F0D
:1003C000423051052CF450935D0140935C0104C010
:1003D00010925D0110925C0120915C0130915D01F1
:1003E000FB0131832083220F331FFC01E20FF31F37
:1003F000808191810E9410010E94C101BC01990F6E
:10040000880B990B0E94610A0895CF92DF92EF92B8
:10041000FF92CF93DF936B017C0120E030E0A901D4
:100420000E94B2098823C9F0C0E0D0E0BE010D2EC1
:10043000000C880B990B0E94610A9B01AC01C7015B
:10044000B6010E94110B181644F48FE99FE0019742
:10045000F1F700C000002196E9CFDF91CF91FF9026
:10046000EF90DF90CF900895CF92DF92EF92FF92BE
:100470000F931F9369017A019B01AC0160E070E06A
:1004800088EC92E40E944509A7019601012B79F4BA
:100490000E94160B2AE037ED43E25CE30E94160B44
:1004A0000E94300A70938900609388000EC00E94F9
:1004B000160B2AE037ED43E25CE30E94160B0E9424
:1004C000300A70938B0060938A001F910F91FF9008
:1004D000EF90DF90CF9008954F925F926F927F924E
:1004E000AF92BF92CF92DF92EF92FF920F931F9342
:1004F000CF93DF93CDB7DEB728970FB6F894DEBF62
:100500000FBECDBF29013A01ED82FE820F8318870D
:100510000E94450969837A838B839C83A601950198
:10052000698D7A8D8B8D9C8D0E9445099B01AC0154
:1005300069817A818B819C810E94160B69837A8301
:100540008B839C83A3019201C801B7010E944509D6
:100550009B01AC0169817A818B819C810E94B709E2
:10056000A60195010E94460928960FB6F894DEBFB1
:100570000FBECDBFDF91CF911F910F91FF90EF90F4
:10058000DF90CF90BF90AF907F906F905F904F9033
:1005900008954F925F926F927F928F929F92AF9247
:1005A000BF92CF92DF92EF92FF920F931F934B0176
:1005B0005C0129013A0167017801A701960160E019
:1005C00070E080E89FE30E944509A50194010E9424
:1005D000160B4B015C01A3019201C701B6010E94F9
:1005E000160B9B01AC01C501B4010E9446091F9185
:1005F0000F91FF90EF90DF90CF90BF90AF909F90C2
:100600008F907F906F905F904F9008958F929F9200
:10061000AF92BF92CF92DF92EF92FF920F931F9310
:10062000CF93DF936B01D82FC92F49015A010E9444
:10063000110B18161CF46401DA2DCB2D9701A801BB
:10064000B6018D2F9C2F0E94B20987FF03C067015E
:10065000D02FC12FB6018D2F9C2FDF91CF911F91ED
:100660000F91FF90EF90DF90CF90BF90AF909F9051
:100670008F9008958091E80080FFFCCF089581E07D
:100680008093D70080EA8093D80082E189BD09B4C5
:1006900000FEFDCF80E98093D8001092E000109218
:1006A000610110925E018CE08093E20078940895DD
:1006B0008091610108959FB7F8948091610188232A
:1006C00039F083E08093E9008091E80085FD03C064
:1006D0009FBF8FEF08958091F1002091E80025FDE4
:1006E00003C02BE62093E8009FBF08959FB7F894BE
:1006F00080916101882331F083E08093E90080914B
:10070000F20001C080E09FBF0895809161018823BD
:1007100071F08FB7F89493E09093E9002BE69091F5
:10072000E80095FF03C02093E800F9CF8FBF08953C
:1007300090916101992371F09FB7F89424E0209380
:10074000E90020915F01222349F02091E80025FD76
:1007500003C09FBF8FEF089510925F012091E400C6
:10076000275E34E04091E80045FD12C09FBF9091A4
:10077000E400291304C081E080935F01EBCF9091E6
:100780006101992339F39FB7F8943093E900EACFD8
:100790008093F1008091E80085FD03C08AE3809397
:1007A000E80085E0809360019FBF80E0089590910C
:1007B00061019923D1F09FB7F89424E02093E900D8
:1007C0002091E80025FD02C09FBF0FC08093F1007B
:1007D0008091E80085FD03C08AE38093E80085E00E
:1007E000809360019FBF80E008958FEF08950F937D
:1007F0001F93CF93DF93DC01CB0120916101222372
:1008000071F02FB7F89434E03093E90030915F0134
:10081000332349F03091E80035FD03C02FBF8FEF3F
:1008200043C110925F01C4E0D0E41AE305E00097F1
:1008300009F438C13091E400375E4091E80045FD8D
:1008400012C02FBF2091E400321304C081E08093D6
:100850005F01E5CF20916101222309F32FB7F894BE
:10086000C093E900EACF3091F200ED2FE31B4E2F49
:1008700050E08417950708F4E82F8E1B91094E2F3E
:1008800050E04134510508F001C1FA01EA5AFF4F26
:100890000C94830B3C913093F10011963C91309372
:1008A000F10011963C913093F10011963C913093F8
:1008B000F10011963C913093F10011963C913093E8
:1008C000F10011963C913093F10011963C913093D8
:1008D000F10011963C913093F10011963C913093C8
:1008E000F10011963C913093F10011963C913093B8
:1008F000F10011963C913093F10011963C913093A8
:10090000F10011963C913093F10011963C91309397
:10091000F10011963C913093F10011963C91309387
:10092000F10011963C913093F10011963C91309377
:10093000F10011963C913093F10011963C91309367
:10094000F10011963C913093F10011963C91309357
:10095000F10011963C913093F10011963C91309347
:10096000F10011963C913093F10011963C91309337
:10097000F10011963C913093F10011963C91309327
:10098000F10011963C913093F10011963C91309317
:10099000F10011963C913093F10011963C91309307
:1009A000F10011963C913093F10011963C913093F7
:1009B000F10011963C913093F10011963C913093E7
:1009C000F10011963C913093F10011963C913093D7
:1009D000F10011963C913093F10011963C913093C7
:1009E000F10011963C913093F10011963C913093B7
:1009F000F10011963C913093F10011963C913093A7
:100A0000F10011963C913093F10011963C91309396
:100A1000F10011963C913093F10011963C91309386
:100A2000F10011963C913093F10011963C91309376
:100A3000F10011963C913093F10011963C91309366
:100A4000F10011963C913093F10011963C91309356
:100A5000F10011963C913093F10011963C91309346
:100A6000F10011963C913093F10011963C91309336
:100A7000F10011963C913093F10011963C91309326
:100A8000F10011963C913093F10011963C91309316
:100A9000F10011963091E80035FF1093E8000093C3
:100AA0006001C5CE2FBF80E0DF91CF911F910F91E4
:100AB00008958FB7F89490916001992341F094E0E4
:100AC0009093E9009AE39093E800109260018FBF41
:100AD0000895809104010895809105010895809101
:100AE0000601089580915E0108959FB7F8942091C2
:100AF0006101222339F022E02093E9003091E800DF
:100B000035FD03C09FBF8FEF089531EA3093F100A8
:100B100030E23093F1001092F1001092F100109247
:100B2000F1001092F1002093F1001092F1008093F7
:100B3000F1001092F1008AE38093E8009FBF80E00B
:100B400008951F920F920FB60F9211248F939F93C7
:100B50008091E1001092E10083FF11C01092E90042
:100B600091E09093EB001092EC0092E19093ED00F5
:100B700098E09093F0001092610110925E0182FF64
:100B800013C080916101882379F0809160018823EE
:100B900059F0815080936001811106C084E08093F8
:100BA000E9008AE38093E8009F918F910F900FBE38
:100BB0000F901F9018951F920F920FB60F9211244D
:100BC000FF920F931F932F933F934F935F936F93D6
:100BD0007F938F939F93AF93BF93CF93DF93EF93C5
:100BE000FF931092E9008091E80083FF17C1F09015
:100BF000F1008091F1000091F1009091F10010E07E
:100C0000192BC091F1009091F100D0E0D92B2091E7
:100C1000F1006091F10092EF9093E800863009F0C6
:100C200049C08EE291E048E551E0FC01A591B49104
:100C30000A171B07D9F4FC013296A591B491CA1783
:100C4000DB07A1F4FC01349645915491FC013696E2
:100C5000849130E0362B2F3F310519F010F02FEF43
:100C600030E0281708F4822F3EEF0CC00796481793
:100C70005907D9F6D3C0490F511D891B3093E8009D
:100C80008823A9F09091E800292F2570D9F392FDCF
:100C9000C8C0982F813108F090E1FA01292F222352
:100CA00051F364916093F10021503196F8CF903167
:100CB00049F3B7C0853049F48EEF8093E8000E9475
:100CC0003A0300680093E300ACC0893059F5F11095
:100CD000A5C00093610110925E01109260018EEF39
:100CE0008093E80041E087ED91E04093E9009C01AA
:100CF0002F5F3F4FFC0154915093EB00552359F067
:100D0000F90124912093EC009C012D5F3F4F319617
:100D1000E491E093ED004F5F453011F0C901E5CF5C
:100D20008EE177C0883051F4F0E8FF1277C00E945E
:100D30003A03809161018093F10049C0813281F4CE
:100D400081EAF8126BC00E943A03E0E0F1E087E02C
:100D500091E021912093F1008E179F07D1F737C0C2
:100D60008032A9F491E2F91259C08091E80082FF23
:100D7000FCCFE0E0F1E087E091E02091F1002193E9
:100D80008E179F07D1F78BEF8093E80020C0823247
:100D900041F4E1E2FE1242C000935E010E943A0378
:100DA00016C0811118C00E943A03F2E8FF120AC06F
:100DB000C093E9008091EB0085FB882780F91092B1
:100DC000E90001C080E08093F1001092F1008EEF05
:100DD0008093E80026C0982F9D7F9130F9F492E02F
:100DE000F9121CC0012BD1F4CF779FEF9C0F9430E8
:100DF000A8F49EEF9093E800C093E900833071F06F
:100E000089E18093EB0081E090E001C0880FCA95F2
:100E1000EAF78093EA001092EA0003C081E280932F
:100E2000EB00FF91EF91DF91CF91BF91AF919F9137
:100E30008F917F916F915F914F913F912F911F9172
:100E40000F91FF900F900FBE0F901F9018951F935A
:100E5000CF93DF93EC01FE011491112351F01A306E
:100E600019F48DE00E949803812F0E949803219627
:100E7000F2CFDF91CF911F9108958A3010F097E360
:100E800001C090E3890F0C949803CF93C82F8295EB
:100E90008F700E943D078C2F8F70CF910C943D076F
:100EA000CF93C82F892F0E9445078C2FCF910C9488
:100EB00045070C944507EF92FF920F931F93CF9332
:100EC000DF93CDB7DEB727970FB6F894DEBF0FBE1E
:100ED000CDBF8E010F5F1F4F27E0F80111922A95B9
:100EE000E9F74AE0B8010E94890B7E01F8E0EF0EB5
:100EF000F11CF80181918F0181110E9498030E1558
:100F00001F05B9F727960FB6F894DEBF0FBECDBF09
:100F1000DF91CF911F910F91FF90EF900895EF9285
:100F2000FF920F931F93CF93DF9300D000D000D098
:100F3000CDB7DEB78E010F5F1F4F26E0F80111928B
:100F40002A95E9F74AE0B8010E94C50B7E01F6E058
:100F5000EF0EF11CF80181918F0181110E9498031D
:100F60000E151F05B9F726960FB6F894DEBF0FBE13
:100F7000CDBFDF91CF911F910F91FF90EF9008951A
:100F8000EF92FF920F931F93CF93DF93CDB7DEB70E
:100F90002B970FB6F894DEBF0FBECDBF8E010F5F4B
:100FA0001F4F2BE0F80111922A95E9F72AE0A801DA
:100FB0000E94940B7E01FCE0EF0EF11CF801819180
:100FC0008F0181110E9498030E151F05B9F72B960A
:100FD0000FB6F894DEBF0FBECDBFDF91CF911F914A
:100FE0000F91FF90EF900895EF92FF920F931F9350
:100FF000CF93DF93CDB7DEB72B970FB6F894DEBF54
:101000000FBECDBF8E010F5F1F4F2BE0F801119275
:101010002A95E9F72AE0A8010E94A30B7E01FBE0D4
:10102000EF0EF11CF80181918F0181110E9498034C
:101030000E151F05B9F72B960FB6F894DEBF0FBE3D
:10104000CDBFDF91CF911F910F91FF90EF90089549
:10105000CF93DF9300D000D000D0CDB7DEB780E8CB
:1010600080936100109261000E943F0387E090E04E
:101070009A8389831C821B821E821D82259A269A4E
:101080002D982E988091810084608093810082EE5B
:1010900094E09093870080938600109289001092CC
:1010A000880080918000806880938000809180001B
:1010B00080648093800080918100806180938100B2
:1010C000809181008860809381008091800082609F
:1010D0008093800010928B0010928A008091800093
:1010E0008062809380008091800080618093800086
:1010F000412C512C320153014201BE016B5F7F4FE5
:10110000CE0101960E94DA010E94290A072E000CE6
:10111000880B990B0E94610A2BE03DE244E35EE3F9
:101120000E94160B0E94290A693C710514F068ECB4
:1011300070E00D811E816B01770FEE08FF0823E33D
:1011400033E343E35FE30115110509F04FC0C30129
:10115000B2010E94160B2B013C01C701B6010E948F
:10116000610A20E030E040E451EC0E94160B20E0E0
:1011700030E044E353E40E94B70920E030E040E768
:1011800051E40E9446092AE939E949E95EE30E94EF
:10119000160BA30192010E9446092B013C0120E09D
:1011A00030E040E751E40E94110B181684F020E073
:1011B00030E040E450E4C301B2010E94B20987FF6D
:1011C0000CC0412C512C30E4632E762C06C0412CEF
:1011D000512C20E7622E21E4722E00E010E020E086
:1011E00030E44CE954E4C301B2014CC0C501B40180
:1011F0000E94160B4B015C01C701B6010E94610AF7
:1012000020E030E040E451EC0E94160B20E030E09A
:1012100044E353E40E94B70920E030E040E751E4A2
:101220000E9446092AE939E949E95EE30E94160B62
:10123000A50194010E9446094B015C0120E030E0C9
:1012400040E751E40E94110B181684F020E030E0D2
:1012500040E450E4C501B4010E94B20987FF0CC00C
:10126000812C912C90E4A92EBA2C06C0812C912CB3
:1012700080E7A82E81E4B82E20E030E44CE954E465
:10128000C501B4010E94340238CF5058BB27AA27A9
:101290000E945D090C94D70A0E94C90A38F00E9486
:1012A000D00A20F039F49F3F19F426F40C94C60AB2
:1012B0000EF4E095E7FB0C94C00AE92F0E94E80ABF
:1012C00058F3BA17620773078407950720F079F47B
:1012D000A6F50C940A0B0EF4E0950B2EBA2FA02D58
:1012E0000B01B90190010C01CA01A0011124FF27D3
:1012F000591B99F0593F50F4503E68F11A16F040CE
:10130000A22F232F342F4427585FF3CF46953795CC
:101310002795A795F0405395C9F77EF41F16BA0B91
:10132000620B730B840BBAF09150A1F0FF0FBB1F3F
:10133000661F771F881FC2F70EC0BA0F621F731F88
:10134000841F48F4879577956795B795F7959E3FE5
:1013500008F0B0CF9395880F08F09927EE0F979576
:10136000879508950E949C0A08F481E008950E94E0
:10137000CB090C94D70A0E94D00A58F00E94C90ADF
:1013800040F029F45F3F29F00C94C00A51110C94ED
:101390000B0B0C94C60A0E94E80A68F39923B1F378
:1013A000552391F3951B550BBB27AA27621773078B
:1013B000840738F09F5F5F4F220F331F441FAA1F1F
:1013C000A9F335D00E2E3AF0E0E832D091505040DB
:1013D000E695001CCAF72BD0FE2F29D0660F771F89
:1013E000881FBB1F261737074807AB07B0E809F06F
:1013F000BB0B802DBF01FF2793585F4F3AF09E3FF4
:10140000510578F00C94C00A0C940B0B5F3FE4F389
:10141000983ED4F3869577956795B795F7959F5F36
:10142000C9F7880F911D9695879597F90895E1E082
:10143000660F771F881FBB1F621773078407BA07E1
:1014400020F0621B730B840BBA0BEE1F88F7E0953C
:1014500008950E94300A6894B1110C940B0B089502
:101460000E94F00A88F09F5798F0B92F9927B7513A
:10147000B0F0E1F0660F771F881F991F1AF0BA9538
:10148000C9F714C0B13091F00E940A0BB1E0089581
:101490000C940A0B672F782F8827B85F39F0B93F73
:1014A000CCF3869577956795B395D9F73EF49095EB
:1014B0008095709561957F4F8F4F9F4F0895E89469
:1014C00009C097FB3EF490958095709561957F4F8C
:1014D0008F4F9F4F9923A9F0F92F96E9BB2793953A
:1014E000F695879577956795B795F111F8CFFAF44A
:1014F000BB0F11F460FF1BC06F5F7F4F8F4F9F4F7B
:1015000016C0882311F096E911C0772321F09EE8D8
:10151000872F762F05C0662371F096E8862F70E03E
:1015200060E02AF09A95660F771F881FDAF7880F18
:101530009695879597F90895990F0008550FAA0B6E
:10154000E0E8FEEF16161706E807F907C0F01216D6
:101550001306E407F50798F0621B730B840B950BD9
:1015600039F40A2661F0232B242B252B21F408952E
:101570000A2609F4A140A6958FEF811D811D0895CB
:1015800097F99F6780E870E060E008959FEF80EC36
:10159000089500240A9416161706180609060895D9
:1015A00000240A9412161306140605060895092E3F
:1015B0000394000C11F4882352F0BB0F40F4BF2BAE
:1015C00011F460FF04C06F5F7F4F8F4F9F4F0895EE
:1015D00057FD9058440F551F59F05F3F71F04795E4
:1015E000880F97FB991F61F09F3F79F087950895C9
:1015F000121613061406551FF2CF4695F1DF08C0E8
:10160000161617061806991FF1CF86957105610504
:1016100008940895E894BB2766277727CB0197F9AC
:1016200008950E949C0A08F48FEF08950E94290BE8
:101630000C94D70A0E94C90A38F00E94D00A20F000
:10164000952311F00C94C00A0C94C60A11240C9432
:101650000B0B0E94E80A70F3959FC1F3950F50E0C1
:10166000551F629FF001729FBB27F00DB11D639F54
:10167000AA27F00DB11DAA1F649F6627B00DA11DFA
:10168000661F829F2227B00DA11D621F739FB00DA0
:10169000A11D621F839FA00D611D221F749F332710
:1016A000A00D611D231F849F600D211D822F762FA9
:1016B0006A2F11249F5750409AF0F1F088234AF086
:1016C000EE0FFF1FBB1F661F771F881F91505040F2
:1016D000A9F79E3F510580F00C94C00A0C940B0BA7
:1016E0005F3FE4F3983ED4F3869577956795B79579
:1016F000F795E7959F5FC1F7FE2B880F911D969593
:10170000879597F90895EE0FFF1F0590F491E02D4E
:101710000994BB274A3031F4992322F4BDE2909515
:1017200081959F4F0C94C60BBB272A3051F4992307
:1017300042F4BDE290958095709561957F4F8F4FF3
:101740009F4F0C94A40BBB27FA01A62F62177105BB
:1017500081059105330B30FB66F0AA27660F771FD2
:10176000881F991FAA1FA21710F0A21B639538505B
:10177000A9F7A05DAA3308F0A95DA19336F7B111CE
:10178000B1931082CA010C94DF0BBB27FB015527D4
:10179000AA27880F991FAA1FA41710F0A41B8395CE
:1017A0005051B9F7A05DAA3308F0A95DA193009745
:1017B00079F7B111B1931192CB010C94DF0BDC01DD
:1017C000FC01672F71917723E1F7329704C07C9178
:1017D0006D9370836291AE17BF07C8F30895F894B4
:0217E000FFCF39
:1017E20000E100000000080000000000000000010D
:1017F20000010001000100000000000000000001E3
:1018020000010000000000000000000000000001D4
:1018120000010000000000010001000000000000C3
:1018220000010000000000000001000000010000B3
:0C183200000100000001000000010000A7
:00000001FF
